{
  "contractName": "Certification",
  "abi": [
    {
      "inputs": [
        {
          "internalType": "string",
          "name": "name",
          "type": "string"
        },
        {
          "internalType": "string",
          "name": "symbol",
          "type": "string"
        },
        {
          "internalType": "address",
          "name": "_owner",
          "type": "address"
        }
      ],
      "stateMutability": "nonpayable",
      "type": "constructor"
    },
    {
      "inputs": [
        {
          "internalType": "address",
          "name": "sender",
          "type": "address"
        },
        {
          "internalType": "uint256",
          "name": "tokenId",
          "type": "uint256"
        },
        {
          "internalType": "address",
          "name": "owner",
          "type": "address"
        }
      ],
      "name": "ERC721IncorrectOwner",
      "type": "error"
    },
    {
      "inputs": [
        {
          "internalType": "address",
          "name": "operator",
          "type": "address"
        },
        {
          "internalType": "uint256",
          "name": "tokenId",
          "type": "uint256"
        }
      ],
      "name": "ERC721InsufficientApproval",
      "type": "error"
    },
    {
      "inputs": [
        {
          "internalType": "address",
          "name": "approver",
          "type": "address"
        }
      ],
      "name": "ERC721InvalidApprover",
      "type": "error"
    },
    {
      "inputs": [
        {
          "internalType": "address",
          "name": "operator",
          "type": "address"
        }
      ],
      "name": "ERC721InvalidOperator",
      "type": "error"
    },
    {
      "inputs": [
        {
          "internalType": "address",
          "name": "owner",
          "type": "address"
        }
      ],
      "name": "ERC721InvalidOwner",
      "type": "error"
    },
    {
      "inputs": [
        {
          "internalType": "address",
          "name": "receiver",
          "type": "address"
        }
      ],
      "name": "ERC721InvalidReceiver",
      "type": "error"
    },
    {
      "inputs": [
        {
          "internalType": "address",
          "name": "sender",
          "type": "address"
        }
      ],
      "name": "ERC721InvalidSender",
      "type": "error"
    },
    {
      "inputs": [
        {
          "internalType": "uint256",
          "name": "tokenId",
          "type": "uint256"
        }
      ],
      "name": "ERC721NonexistentToken",
      "type": "error"
    },
    {
      "inputs": [
        {
          "internalType": "address",
          "name": "owner",
          "type": "address"
        }
      ],
      "name": "OwnableInvalidOwner",
      "type": "error"
    },
    {
      "inputs": [
        {
          "internalType": "address",
          "name": "account",
          "type": "address"
        }
      ],
      "name": "OwnableUnauthorizedAccount",
      "type": "error"
    },
    {
      "anonymous": false,
      "inputs": [
        {
          "indexed": true,
          "internalType": "address",
          "name": "owner",
          "type": "address"
        },
        {
          "indexed": true,
          "internalType": "address",
          "name": "approved",
          "type": "address"
        },
        {
          "indexed": true,
          "internalType": "uint256",
          "name": "tokenId",
          "type": "uint256"
        }
      ],
      "name": "Approval",
      "type": "event"
    },
    {
      "anonymous": false,
      "inputs": [
        {
          "indexed": true,
          "internalType": "address",
          "name": "owner",
          "type": "address"
        },
        {
          "indexed": true,
          "internalType": "address",
          "name": "operator",
          "type": "address"
        },
        {
          "indexed": false,
          "internalType": "bool",
          "name": "approved",
          "type": "bool"
        }
      ],
      "name": "ApprovalForAll",
      "type": "event"
    },
    {
      "anonymous": false,
      "inputs": [
        {
          "indexed": true,
          "internalType": "uint256",
          "name": "_tokenId",
          "type": "uint256"
        }
      ],
      "name": "MintedCert",
      "type": "event"
    },
    {
      "anonymous": false,
      "inputs": [
        {
          "indexed": true,
          "internalType": "address",
          "name": "previousOwner",
          "type": "address"
        },
        {
          "indexed": true,
          "internalType": "address",
          "name": "newOwner",
          "type": "address"
        }
      ],
      "name": "OwnershipTransferred",
      "type": "event"
    },
    {
      "anonymous": false,
      "inputs": [
        {
          "indexed": true,
          "internalType": "address",
          "name": "from",
          "type": "address"
        },
        {
          "indexed": true,
          "internalType": "address",
          "name": "to",
          "type": "address"
        },
        {
          "indexed": true,
          "internalType": "uint256",
          "name": "tokenId",
          "type": "uint256"
        }
      ],
      "name": "Transfer",
      "type": "event"
    },
    {
      "inputs": [
        {
          "internalType": "address",
          "name": "to",
          "type": "address"
        },
        {
          "internalType": "uint256",
          "name": "tokenId",
          "type": "uint256"
        }
      ],
      "name": "approve",
      "outputs": [],
      "stateMutability": "nonpayable",
      "type": "function"
    },
    {
      "inputs": [
        {
          "internalType": "address",
          "name": "owner",
          "type": "address"
        }
      ],
      "name": "balanceOf",
      "outputs": [
        {
          "internalType": "uint256",
          "name": "",
          "type": "uint256"
        }
      ],
      "stateMutability": "view",
      "type": "function",
      "constant": true
    },
    {
      "inputs": [
        {
          "internalType": "uint256",
          "name": "tokenId",
          "type": "uint256"
        }
      ],
      "name": "getApproved",
      "outputs": [
        {
          "internalType": "address",
          "name": "",
          "type": "address"
        }
      ],
      "stateMutability": "view",
      "type": "function",
      "constant": true
    },
    {
      "inputs": [
        {
          "internalType": "address",
          "name": "owner",
          "type": "address"
        },
        {
          "internalType": "address",
          "name": "operator",
          "type": "address"
        }
      ],
      "name": "isApprovedForAll",
      "outputs": [
        {
          "internalType": "bool",
          "name": "",
          "type": "bool"
        }
      ],
      "stateMutability": "view",
      "type": "function",
      "constant": true
    },
    {
      "inputs": [],
      "name": "name",
      "outputs": [
        {
          "internalType": "string",
          "name": "",
          "type": "string"
        }
      ],
      "stateMutability": "view",
      "type": "function",
      "constant": true
    },
    {
      "inputs": [],
      "name": "owner",
      "outputs": [
        {
          "internalType": "address",
          "name": "",
          "type": "address"
        }
      ],
      "stateMutability": "view",
      "type": "function",
      "constant": true
    },
    {
      "inputs": [
        {
          "internalType": "uint256",
          "name": "tokenId",
          "type": "uint256"
        }
      ],
      "name": "ownerOf",
      "outputs": [
        {
          "internalType": "address",
          "name": "",
          "type": "address"
        }
      ],
      "stateMutability": "view",
      "type": "function",
      "constant": true
    },
    {
      "inputs": [],
      "name": "renounceOwnership",
      "outputs": [],
      "stateMutability": "nonpayable",
      "type": "function"
    },
    {
      "inputs": [
        {
          "internalType": "address",
          "name": "from",
          "type": "address"
        },
        {
          "internalType": "address",
          "name": "to",
          "type": "address"
        },
        {
          "internalType": "uint256",
          "name": "tokenId",
          "type": "uint256"
        }
      ],
      "name": "safeTransferFrom",
      "outputs": [],
      "stateMutability": "nonpayable",
      "type": "function"
    },
    {
      "inputs": [
        {
          "internalType": "address",
          "name": "from",
          "type": "address"
        },
        {
          "internalType": "address",
          "name": "to",
          "type": "address"
        },
        {
          "internalType": "uint256",
          "name": "tokenId",
          "type": "uint256"
        },
        {
          "internalType": "bytes",
          "name": "data",
          "type": "bytes"
        }
      ],
      "name": "safeTransferFrom",
      "outputs": [],
      "stateMutability": "nonpayable",
      "type": "function"
    },
    {
      "inputs": [
        {
          "internalType": "address",
          "name": "operator",
          "type": "address"
        },
        {
          "internalType": "bool",
          "name": "approved",
          "type": "bool"
        }
      ],
      "name": "setApprovalForAll",
      "outputs": [],
      "stateMutability": "nonpayable",
      "type": "function"
    },
    {
      "inputs": [
        {
          "internalType": "uint256",
          "name": "",
          "type": "uint256"
        }
      ],
      "name": "student",
      "outputs": [
        {
          "internalType": "string",
          "name": "studentName",
          "type": "string"
        },
        {
          "internalType": "string",
          "name": "studentNum",
          "type": "string"
        },
        {
          "internalType": "string",
          "name": "program",
          "type": "string"
        },
        {
          "internalType": "string",
          "name": "specialization",
          "type": "string"
        },
        {
          "internalType": "string",
          "name": "gradDate",
          "type": "string"
        }
      ],
      "stateMutability": "view",
      "type": "function",
      "constant": true
    },
    {
      "inputs": [
        {
          "internalType": "bytes4",
          "name": "interfaceId",
          "type": "bytes4"
        }
      ],
      "name": "supportsInterface",
      "outputs": [
        {
          "internalType": "bool",
          "name": "",
          "type": "bool"
        }
      ],
      "stateMutability": "view",
      "type": "function",
      "constant": true
    },
    {
      "inputs": [],
      "name": "symbol",
      "outputs": [
        {
          "internalType": "string",
          "name": "",
          "type": "string"
        }
      ],
      "stateMutability": "view",
      "type": "function",
      "constant": true
    },
    {
      "inputs": [
        {
          "internalType": "uint256",
          "name": "tokenId",
          "type": "uint256"
        }
      ],
      "name": "tokenURI",
      "outputs": [
        {
          "internalType": "string",
          "name": "",
          "type": "string"
        }
      ],
      "stateMutability": "view",
      "type": "function",
      "constant": true
    },
    {
      "inputs": [
        {
          "internalType": "address",
          "name": "from",
          "type": "address"
        },
        {
          "internalType": "address",
          "name": "to",
          "type": "address"
        },
        {
          "internalType": "uint256",
          "name": "tokenId",
          "type": "uint256"
        }
      ],
      "name": "transferFrom",
      "outputs": [],
      "stateMutability": "nonpayable",
      "type": "function"
    },
    {
      "inputs": [
        {
          "internalType": "address",
          "name": "newOwner",
          "type": "address"
        }
      ],
      "name": "transferOwnership",
      "outputs": [],
      "stateMutability": "nonpayable",
      "type": "function"
    },
    {
      "inputs": [
        {
          "internalType": "uint256",
          "name": "certTokenId",
          "type": "uint256"
        }
      ],
      "name": "verify",
      "outputs": [
        {
          "internalType": "string",
          "name": "studentName",
          "type": "string"
        },
        {
          "internalType": "string",
          "name": "studentNum",
          "type": "string"
        },
        {
          "internalType": "string",
          "name": "program",
          "type": "string"
        },
        {
          "internalType": "string",
          "name": "gradDate",
          "type": "string"
        },
        {
          "internalType": "string",
          "name": "specialization",
          "type": "string"
        }
      ],
      "stateMutability": "view",
      "type": "function",
      "constant": true
    },
    {
      "inputs": [
        {
          "internalType": "string",
          "name": "_name",
          "type": "string"
        },
        {
          "internalType": "string",
          "name": "_studentNum",
          "type": "string"
        },
        {
          "internalType": "string",
          "name": "_program",
          "type": "string"
        },
        {
          "internalType": "string",
          "name": "_specialization",
          "type": "string"
        },
        {
          "internalType": "string",
          "name": "_gradDate",
          "type": "string"
        }
      ],
      "name": "mint",
      "outputs": [],
      "stateMutability": "payable",
      "type": "function",
      "payable": true
    }
  ],
  "bytecode": "0x60806040523480156200001157600080fd5b50604051620035e2380380620035e28339818101604052810190620000379190620003ae565b80838381600090816200004b919062000693565b5080600190816200005d919062000693565b505050600073ffffffffffffffffffffffffffffffffffffffff168173ffffffffffffffffffffffffffffffffffffffff1603620000d55760006040517f1e4fbdf7000000000000000000000000000000000000000000000000000000008152600401620000cc91906200078b565b60405180910390fd5b620000e681620000f060201b60201c565b50505050620007a8565b6000600660009054906101000a900473ffffffffffffffffffffffffffffffffffffffff16905081600660006101000a81548173ffffffffffffffffffffffffffffffffffffffff021916908373ffffffffffffffffffffffffffffffffffffffff1602179055508173ffffffffffffffffffffffffffffffffffffffff168173ffffffffffffffffffffffffffffffffffffffff167f8be0079c531659141344cd1fd0a4f28419497f9722a3daafe3b4186f6b6457e060405160405180910390a35050565b6000604051905090565b600080fd5b600080fd5b600080fd5b600080fd5b6000601f19601f8301169050919050565b7f4e487b7100000000000000000000000000000000000000000000000000000000600052604160045260246000fd5b6200021f82620001d4565b810181811067ffffffffffffffff82111715620002415762000240620001e5565b5b80604052505050565b600062000256620001b6565b905062000264828262000214565b919050565b600067ffffffffffffffff821115620002875762000286620001e5565b5b6200029282620001d4565b9050602081019050919050565b60005b83811015620002bf578082015181840152602081019050620002a2565b60008484015250505050565b6000620002e2620002dc8462000269565b6200024a565b905082815260208101848484011115620003015762000300620001cf565b5b6200030e8482856200029f565b509392505050565b600082601f8301126200032e576200032d620001ca565b5b815162000340848260208601620002cb565b91505092915050565b600073ffffffffffffffffffffffffffffffffffffffff82169050919050565b6000620003768262000349565b9050919050565b620003888162000369565b81146200039457600080fd5b50565b600081519050620003a8816200037d565b92915050565b600080600060608486031215620003ca57620003c9620001c0565b5b600084015167ffffffffffffffff811115620003eb57620003ea620001c5565b5b620003f98682870162000316565b935050602084015167ffffffffffffffff8111156200041d576200041c620001c5565b5b6200042b8682870162000316565b92505060406200043e8682870162000397565b9150509250925092565b600081519050919050565b7f4e487b7100000000000000000000000000000000000000000000000000000000600052602260045260246000fd5b600060028204905060018216806200049b57607f821691505b602082108103620004b157620004b062000453565b5b50919050565b60008190508160005260206000209050919050565b60006020601f8301049050919050565b600082821b905092915050565b6000600883026200051b7fffffffffffffffffffffffffffffffffffffffffffffffffffffffffffffffff82620004dc565b620005278683620004dc565b95508019841693508086168417925050509392505050565b6000819050919050565b6000819050919050565b6000620005746200056e62000568846200053f565b62000549565b6200053f565b9050919050565b6000819050919050565b620005908362000553565b620005a86200059f826200057b565b848454620004e9565b825550505050565b600090565b620005bf620005b0565b620005cc81848462000585565b505050565b5b81811015620005f457620005e8600082620005b5565b600181019050620005d2565b5050565b601f82111562000643576200060d81620004b7565b6200061884620004cc565b8101602085101562000628578190505b620006406200063785620004cc565b830182620005d1565b50505b505050565b600082821c905092915050565b6000620006686000198460080262000648565b1980831691505092915050565b600062000683838362000655565b9150826002028217905092915050565b6200069e8262000448565b67ffffffffffffffff811115620006ba57620006b9620001e5565b5b620006c6825462000482565b620006d3828285620005f8565b600060209050601f8311600181146200070b5760008415620006f6578287015190505b62000702858262000675565b86555062000772565b601f1984166200071b86620004b7565b60005b8281101562000745578489015182556001820191506020850194506020810190506200071e565b8683101562000765578489015162000761601f89168262000655565b8355505b6001600288020188555050505b505050505050565b620007858162000369565b82525050565b6000602082019050620007a260008301846200077a565b92915050565b612e2a80620007b86000396000f3fe6080604052600436106101145760003560e01c8063715018a6116100a0578063a22cb46511610064578063a22cb465146103be578063b88d4fde146103e7578063c87b56dd14610410578063e985e9c51461044d578063f2fde38b1461048a57610114565b8063715018a6146102f457806386833e911461030b5780638753367f146103275780638da5cb5b1461036857806395d89b411461039357610114565b806323b872dd116100e757806323b872dd146101e757806335f342321461021057806342842e0e146102515780636352211e1461027a57806370a08231146102b757610114565b806301ffc9a71461011957806306fdde0314610156578063081812fc14610181578063095ea7b3146101be575b600080fd5b34801561012557600080fd5b50610140600480360381019061013b9190612132565b6104b3565b60405161014d919061217a565b60405180910390f35b34801561016257600080fd5b5061016b610595565b6040516101789190612225565b60405180910390f35b34801561018d57600080fd5b506101a860048036038101906101a3919061227d565b610627565b6040516101b591906122eb565b60405180910390f35b3480156101ca57600080fd5b506101e560048036038101906101e09190612332565b610643565b005b3480156101f357600080fd5b5061020e60048036038101906102099190612372565b610659565b005b34801561021c57600080fd5b506102376004803603810190610232919061227d565b61075b565b6040516102489594939291906123c5565b60405180910390f35b34801561025d57600080fd5b5061027860048036038101906102739190612372565b610a49565b005b34801561028657600080fd5b506102a1600480360381019061029c919061227d565b610a69565b6040516102ae91906122eb565b60405180910390f35b3480156102c357600080fd5b506102de60048036038101906102d9919061243b565b610a7b565b6040516102eb9190612477565b60405180910390f35b34801561030057600080fd5b50610309610b35565b005b610325600480360381019061032091906125c7565b610b49565b005b34801561033357600080fd5b5061034e6004803603810190610349919061227d565b610c77565b60405161035f9594939291906123c5565b60405180910390f35b34801561037457600080fd5b5061037d610fc6565b60405161038a91906122eb565b60405180910390f35b34801561039f57600080fd5b506103a8610ff0565b6040516103b59190612225565b60405180910390f35b3480156103ca57600080fd5b506103e560048036038101906103e091906126fa565b611082565b005b3480156103f357600080fd5b5061040e600480360381019061040991906127db565b611098565b005b34801561041c57600080fd5b506104376004803603810190610432919061227d565b6110b5565b6040516104449190612225565b60405180910390f35b34801561045957600080fd5b50610474600480360381019061046f919061285e565b61111e565b604051610481919061217a565b60405180910390f35b34801561049657600080fd5b506104b160048036038101906104ac919061243b565b6111b2565b005b60007f80ac58cd000000000000000000000000000000000000000000000000000000007bffffffffffffffffffffffffffffffffffffffffffffffffffffffff1916827bffffffffffffffffffffffffffffffffffffffffffffffffffffffff1916148061057e57507f5b5e139f000000000000000000000000000000000000000000000000000000007bffffffffffffffffffffffffffffffffffffffffffffffffffffffff1916827bffffffffffffffffffffffffffffffffffffffffffffffffffffffff1916145b8061058e575061058d82611238565b5b9050919050565b6060600080546105a4906128cd565b80601f01602080910402602001604051908101604052809291908181526020018280546105d0906128cd565b801561061d5780601f106105f25761010080835404028352916020019161061d565b820191906000526020600020905b81548152906001019060200180831161060057829003601f168201915b5050505050905090565b6000610632826112a2565b5061063c8261132a565b9050919050565b6106558282610650611367565b61136f565b5050565b600073ffffffffffffffffffffffffffffffffffffffff168273ffffffffffffffffffffffffffffffffffffffff16036106cb5760006040517f64a0ae920000000000000000000000000000000000000000000000000000000081526004016106c291906122eb565b60405180910390fd5b60006106df83836106da611367565b611381565b90508373ffffffffffffffffffffffffffffffffffffffff168173ffffffffffffffffffffffffffffffffffffffff1614610755578382826040517f64283d7b00000000000000000000000000000000000000000000000000000000815260040161074c939291906128fe565b60405180910390fd5b50505050565b6008818154811061076b57600080fd5b906000526020600020906005020160009150905080600001805461078e906128cd565b80601f01602080910402602001604051908101604052809291908181526020018280546107ba906128cd565b80156108075780601f106107dc57610100808354040283529160200191610807565b820191906000526020600020905b8154815290600101906020018083116107ea57829003601f168201915b50505050509080600101805461081c906128cd565b80601f0160208091040260200160405190810160405280929190818152602001828054610848906128cd565b80156108955780601f1061086a57610100808354040283529160200191610895565b820191906000526020600020905b81548152906001019060200180831161087857829003601f168201915b5050505050908060020180546108aa906128cd565b80601f01602080910402602001604051908101604052809291908181526020018280546108d6906128cd565b80156109235780601f106108f857610100808354040283529160200191610923565b820191906000526020600020905b81548152906001019060200180831161090657829003601f168201915b505050505090806003018054610938906128cd565b80601f0160208091040260200160405190810160405280929190818152602001828054610964906128cd565b80156109b15780601f10610986576101008083540402835291602001916109b1565b820191906000526020600020905b81548152906001019060200180831161099457829003601f168201915b5050505050908060040180546109c6906128cd565b80601f01602080910402602001604051908101604052809291908181526020018280546109f2906128cd565b8015610a3f5780601f10610a1457610100808354040283529160200191610a3f565b820191906000526020600020905b815481529060010190602001808311610a2257829003601f168201915b5050505050905085565b610a6483838360405180602001604052806000815250611098565b505050565b6000610a74826112a2565b9050919050565b60008073ffffffffffffffffffffffffffffffffffffffff168273ffffffffffffffffffffffffffffffffffffffff1603610aee5760006040517f89c62b64000000000000000000000000000000000000000000000000000000008152600401610ae591906122eb565b60405180910390fd5b600360008373ffffffffffffffffffffffffffffffffffffffff1673ffffffffffffffffffffffffffffffffffffffff168152602001908152602001600020549050919050565b610b3d61159b565b610b476000611622565b565b610b5161159b565b6000600754905060006040518060a0016040528088815260200187815260200186815260200185815260200184815250905060088190806001815401808255809150506001900390600052602060002090600502016000909190919091506000820151816000019081610bc49190612ae1565b506020820151816001019081610bda9190612ae1565b506040820151816002019081610bf09190612ae1565b506060820151816003019081610c069190612ae1565b506080820151816004019081610c1c9190612ae1565b505050610c2933836116e8565b60076000815480929190610c3c90612be2565b9190505550817f83148b9a26609a97b84573c75ede334cda3a2cb984525a571038f06c3699c5f260405160405180910390a250505050505050565b6060806060806060600060088781548110610c9557610c94612c2a565b5b90600052602060002090600502016040518060a0016040529081600082018054610cbe906128cd565b80601f0160208091040260200160405190810160405280929190818152602001828054610cea906128cd565b8015610d375780601f10610d0c57610100808354040283529160200191610d37565b820191906000526020600020905b815481529060010190602001808311610d1a57829003601f168201915b50505050508152602001600182018054610d50906128cd565b80601f0160208091040260200160405190810160405280929190818152602001828054610d7c906128cd565b8015610dc95780601f10610d9e57610100808354040283529160200191610dc9565b820191906000526020600020905b815481529060010190602001808311610dac57829003601f168201915b50505050508152602001600282018054610de2906128cd565b80601f0160208091040260200160405190810160405280929190818152602001828054610e0e906128cd565b8015610e5b5780601f10610e3057610100808354040283529160200191610e5b565b820191906000526020600020905b815481529060010190602001808311610e3e57829003601f168201915b50505050508152602001600382018054610e74906128cd565b80601f0160208091040260200160405190810160405280929190818152602001828054610ea0906128cd565b8015610eed5780601f10610ec257610100808354040283529160200191610eed565b820191906000526020600020905b815481529060010190602001808311610ed057829003601f168201915b50505050508152602001600482018054610f06906128cd565b80601f0160208091040260200160405190810160405280929190818152602001828054610f32906128cd565b8015610f7f5780601f10610f5457610100808354040283529160200191610f7f565b820191906000526020600020905b815481529060010190602001808311610f6257829003601f168201915b505050505081525050905080600001519550806020015194508060400151935080608001519250806060015191508585858486955095509550955095505091939590929450565b6000600660009054906101000a900473ffffffffffffffffffffffffffffffffffffffff16905090565b606060018054610fff906128cd565b80601f016020809104026020016040519081016040528092919081815260200182805461102b906128cd565b80156110785780601f1061104d57610100808354040283529160200191611078565b820191906000526020600020905b81548152906001019060200180831161105b57829003601f168201915b5050505050905090565b61109461108d611367565b83836117e1565b5050565b6110a3848484610659565b6110af84848484611950565b50505050565b60606110c0826112a2565b5060006110cb611b07565b905060008151116110eb5760405180602001604052806000815250611116565b806110f584611b1e565b604051602001611106929190612c95565b6040516020818303038152906040525b915050919050565b6000600560008473ffffffffffffffffffffffffffffffffffffffff1673ffffffffffffffffffffffffffffffffffffffff16815260200190815260200160002060008373ffffffffffffffffffffffffffffffffffffffff1673ffffffffffffffffffffffffffffffffffffffff16815260200190815260200160002060009054906101000a900460ff16905092915050565b6111ba61159b565b600073ffffffffffffffffffffffffffffffffffffffff168173ffffffffffffffffffffffffffffffffffffffff160361122c5760006040517f1e4fbdf700000000000000000000000000000000000000000000000000000000815260040161122391906122eb565b60405180910390fd5b61123581611622565b50565b60007f01ffc9a7000000000000000000000000000000000000000000000000000000007bffffffffffffffffffffffffffffffffffffffffffffffffffffffff1916827bffffffffffffffffffffffffffffffffffffffffffffffffffffffff1916149050919050565b6000806112ae83611bec565b9050600073ffffffffffffffffffffffffffffffffffffffff168173ffffffffffffffffffffffffffffffffffffffff160361132157826040517f7e2732890000000000000000000000000000000000000000000000000000000081526004016113189190612477565b60405180910390fd5b80915050919050565b60006004600083815260200190815260200160002060009054906101000a900473ffffffffffffffffffffffffffffffffffffffff169050919050565b600033905090565b61137c8383836001611c29565b505050565b60008061138d84611bec565b9050600073ffffffffffffffffffffffffffffffffffffffff168373ffffffffffffffffffffffffffffffffffffffff16146113cf576113ce818486611dee565b5b600073ffffffffffffffffffffffffffffffffffffffff168173ffffffffffffffffffffffffffffffffffffffff161461146057611411600085600080611c29565b6001600360008373ffffffffffffffffffffffffffffffffffffffff1673ffffffffffffffffffffffffffffffffffffffff168152602001908152602001600020600082825403925050819055505b600073ffffffffffffffffffffffffffffffffffffffff168573ffffffffffffffffffffffffffffffffffffffff16146114e3576001600360008773ffffffffffffffffffffffffffffffffffffffff1673ffffffffffffffffffffffffffffffffffffffff168152602001908152602001600020600082825401925050819055505b846002600086815260200190815260200160002060006101000a81548173ffffffffffffffffffffffffffffffffffffffff021916908373ffffffffffffffffffffffffffffffffffffffff160217905550838573ffffffffffffffffffffffffffffffffffffffff168273ffffffffffffffffffffffffffffffffffffffff167fddf252ad1be2c89b69c2b068fc378daa952ba7f163c4a11628f55a4df523b3ef60405160405180910390a4809150509392505050565b6115a3611367565b73ffffffffffffffffffffffffffffffffffffffff166115c1610fc6565b73ffffffffffffffffffffffffffffffffffffffff1614611620576115e4611367565b6040517f118cdaa700000000000000000000000000000000000000000000000000000000815260040161161791906122eb565b60405180910390fd5b565b6000600660009054906101000a900473ffffffffffffffffffffffffffffffffffffffff16905081600660006101000a81548173ffffffffffffffffffffffffffffffffffffffff021916908373ffffffffffffffffffffffffffffffffffffffff1602179055508173ffffffffffffffffffffffffffffffffffffffff168173ffffffffffffffffffffffffffffffffffffffff167f8be0079c531659141344cd1fd0a4f28419497f9722a3daafe3b4186f6b6457e060405160405180910390a35050565b600073ffffffffffffffffffffffffffffffffffffffff168273ffffffffffffffffffffffffffffffffffffffff160361175a5760006040517f64a0ae9200000000000000000000000000000000000000000000000000000000815260040161175191906122eb565b60405180910390fd5b600061176883836000611381565b9050600073ffffffffffffffffffffffffffffffffffffffff168173ffffffffffffffffffffffffffffffffffffffff16146117dc5760006040517f73c6ac6e0000000000000000000000000000000000000000000000000000000081526004016117d391906122eb565b60405180910390fd5b505050565b600073ffffffffffffffffffffffffffffffffffffffff168273ffffffffffffffffffffffffffffffffffffffff160361185257816040517f5b08ba1800000000000000000000000000000000000000000000000000000000815260040161184991906122eb565b60405180910390fd5b80600560008573ffffffffffffffffffffffffffffffffffffffff1673ffffffffffffffffffffffffffffffffffffffff16815260200190815260200160002060008473ffffffffffffffffffffffffffffffffffffffff1673ffffffffffffffffffffffffffffffffffffffff16815260200190815260200160002060006101000a81548160ff0219169083151502179055508173ffffffffffffffffffffffffffffffffffffffff168373ffffffffffffffffffffffffffffffffffffffff167f17307eab39ab6107e8899845ad3d59bd9653f200f220920489ca2b5937696c3183604051611943919061217a565b60405180910390a3505050565b60008373ffffffffffffffffffffffffffffffffffffffff163b1115611b01578273ffffffffffffffffffffffffffffffffffffffff1663150b7a02611994611367565b8685856040518563ffffffff1660e01b81526004016119b69493929190612d0e565b6020604051808303816000875af19250505080156119f257506040513d601f19601f820116820180604052508101906119ef9190612d6f565b60015b611a76573d8060008114611a22576040519150601f19603f3d011682016040523d82523d6000602084013e611a27565b606091505b506000815103611a6e57836040517f64a0ae92000000000000000000000000000000000000000000000000000000008152600401611a6591906122eb565b60405180910390fd5b805181602001fd5b63150b7a0260e01b7bffffffffffffffffffffffffffffffffffffffffffffffffffffffff1916817bffffffffffffffffffffffffffffffffffffffffffffffffffffffff191614611aff57836040517f64a0ae92000000000000000000000000000000000000000000000000000000008152600401611af691906122eb565b60405180910390fd5b505b50505050565b606060405180602001604052806000815250905090565b606060006001611b2d84611eb2565b01905060008167ffffffffffffffff811115611b4c57611b4b61249c565b5b6040519080825280601f01601f191660200182016040528015611b7e5781602001600182028036833780820191505090505b509050600082602001820190505b600115611be1578080600190039150507f3031323334353637383961626364656600000000000000000000000000000000600a86061a8153600a8581611bd557611bd4612d9c565b5b04945060008503611b8c575b819350505050919050565b60006002600083815260200190815260200160002060009054906101000a900473ffffffffffffffffffffffffffffffffffffffff169050919050565b8080611c625750600073ffffffffffffffffffffffffffffffffffffffff168273ffffffffffffffffffffffffffffffffffffffff1614155b15611d96576000611c72846112a2565b9050600073ffffffffffffffffffffffffffffffffffffffff168373ffffffffffffffffffffffffffffffffffffffff1614158015611cdd57508273ffffffffffffffffffffffffffffffffffffffff168173ffffffffffffffffffffffffffffffffffffffff1614155b8015611cf05750611cee818461111e565b155b15611d3257826040517fa9fbf51f000000000000000000000000000000000000000000000000000000008152600401611d2991906122eb565b60405180910390fd5b8115611d9457838573ffffffffffffffffffffffffffffffffffffffff168273ffffffffffffffffffffffffffffffffffffffff167f8c5be1e5ebec7d5bd14f71427d1e84f3dd0314c0f7b2291e5b200ac8c7c3b92560405160405180910390a45b505b836004600085815260200190815260200160002060006101000a81548173ffffffffffffffffffffffffffffffffffffffff021916908373ffffffffffffffffffffffffffffffffffffffff16021790555050505050565b611df9838383612005565b611ead57600073ffffffffffffffffffffffffffffffffffffffff168373ffffffffffffffffffffffffffffffffffffffff1603611e6e57806040517f7e273289000000000000000000000000000000000000000000000000000000008152600401611e659190612477565b60405180910390fd5b81816040517f177e802f000000000000000000000000000000000000000000000000000000008152600401611ea4929190612dcb565b60405180910390fd5b505050565b600080600090507a184f03e93ff9f4daa797ed6e38ed64bf6a1f0100000000000000008310611f10577a184f03e93ff9f4daa797ed6e38ed64bf6a1f0100000000000000008381611f0657611f05612d9c565b5b0492506040810190505b6d04ee2d6d415b85acef81000000008310611f4d576d04ee2d6d415b85acef81000000008381611f4357611f42612d9c565b5b0492506020810190505b662386f26fc100008310611f7c57662386f26fc100008381611f7257611f71612d9c565b5b0492506010810190505b6305f5e1008310611fa5576305f5e1008381611f9b57611f9a612d9c565b5b0492506008810190505b6127108310611fca576127108381611fc057611fbf612d9c565b5b0492506004810190505b60648310611fed5760648381611fe357611fe2612d9c565b5b0492506002810190505b600a8310611ffc576001810190505b80915050919050565b60008073ffffffffffffffffffffffffffffffffffffffff168373ffffffffffffffffffffffffffffffffffffffff16141580156120bd57508273ffffffffffffffffffffffffffffffffffffffff168473ffffffffffffffffffffffffffffffffffffffff16148061207e575061207d848461111e565b5b806120bc57508273ffffffffffffffffffffffffffffffffffffffff166120a48361132a565b73ffffffffffffffffffffffffffffffffffffffff16145b5b90509392505050565b6000604051905090565b600080fd5b600080fd5b60007fffffffff0000000000000000000000000000000000000000000000000000000082169050919050565b61210f816120da565b811461211a57600080fd5b50565b60008135905061212c81612106565b92915050565b600060208284031215612148576121476120d0565b5b60006121568482850161211d565b91505092915050565b60008115159050919050565b6121748161215f565b82525050565b600060208201905061218f600083018461216b565b92915050565b600081519050919050565b600082825260208201905092915050565b60005b838110156121cf5780820151818401526020810190506121b4565b60008484015250505050565b6000601f19601f8301169050919050565b60006121f782612195565b61220181856121a0565b93506122118185602086016121b1565b61221a816121db565b840191505092915050565b6000602082019050818103600083015261223f81846121ec565b905092915050565b6000819050919050565b61225a81612247565b811461226557600080fd5b50565b60008135905061227781612251565b92915050565b600060208284031215612293576122926120d0565b5b60006122a184828501612268565b91505092915050565b600073ffffffffffffffffffffffffffffffffffffffff82169050919050565b60006122d5826122aa565b9050919050565b6122e5816122ca565b82525050565b600060208201905061230060008301846122dc565b92915050565b61230f816122ca565b811461231a57600080fd5b50565b60008135905061232c81612306565b92915050565b60008060408385031215612349576123486120d0565b5b60006123578582860161231d565b925050602061236885828601612268565b9150509250929050565b60008060006060848603121561238b5761238a6120d0565b5b60006123998682870161231d565b93505060206123aa8682870161231d565b92505060406123bb86828701612268565b9150509250925092565b600060a08201905081810360008301526123df81886121ec565b905081810360208301526123f381876121ec565b9050818103604083015261240781866121ec565b9050818103606083015261241b81856121ec565b9050818103608083015261242f81846121ec565b90509695505050505050565b600060208284031215612451576124506120d0565b5b600061245f8482850161231d565b91505092915050565b61247181612247565b82525050565b600060208201905061248c6000830184612468565b92915050565b600080fd5b600080fd5b7f4e487b7100000000000000000000000000000000000000000000000000000000600052604160045260246000fd5b6124d4826121db565b810181811067ffffffffffffffff821117156124f3576124f261249c565b5b80604052505050565b60006125066120c6565b905061251282826124cb565b919050565b600067ffffffffffffffff8211156125325761253161249c565b5b61253b826121db565b9050602081019050919050565b82818337600083830152505050565b600061256a61256584612517565b6124fc565b90508281526020810184848401111561258657612585612497565b5b612591848285612548565b509392505050565b600082601f8301126125ae576125ad612492565b5b81356125be848260208601612557565b91505092915050565b600080600080600060a086880312156125e3576125e26120d0565b5b600086013567ffffffffffffffff811115612601576126006120d5565b5b61260d88828901612599565b955050602086013567ffffffffffffffff81111561262e5761262d6120d5565b5b61263a88828901612599565b945050604086013567ffffffffffffffff81111561265b5761265a6120d5565b5b61266788828901612599565b935050606086013567ffffffffffffffff811115612688576126876120d5565b5b61269488828901612599565b925050608086013567ffffffffffffffff8111156126b5576126b46120d5565b5b6126c188828901612599565b9150509295509295909350565b6126d78161215f565b81146126e257600080fd5b50565b6000813590506126f4816126ce565b92915050565b60008060408385031215612711576127106120d0565b5b600061271f8582860161231d565b9250506020612730858286016126e5565b9150509250929050565b600067ffffffffffffffff8211156127555761275461249c565b5b61275e826121db565b9050602081019050919050565b600061277e6127798461273a565b6124fc565b90508281526020810184848401111561279a57612799612497565b5b6127a5848285612548565b509392505050565b600082601f8301126127c2576127c1612492565b5b81356127d284826020860161276b565b91505092915050565b600080600080608085870312156127f5576127f46120d0565b5b60006128038782880161231d565b94505060206128148782880161231d565b935050604061282587828801612268565b925050606085013567ffffffffffffffff811115612846576128456120d5565b5b612852878288016127ad565b91505092959194509250565b60008060408385031215612875576128746120d0565b5b60006128838582860161231d565b92505060206128948582860161231d565b9150509250929050565b7f4e487b7100000000000000000000000000000000000000000000000000000000600052602260045260246000fd5b600060028204905060018216806128e557607f821691505b6020821081036128f8576128f761289e565b5b50919050565b600060608201905061291360008301866122dc565b6129206020830185612468565b61292d60408301846122dc565b949350505050565b60008190508160005260206000209050919050565b60006020601f8301049050919050565b600082821b905092915050565b6000600883026129977fffffffffffffffffffffffffffffffffffffffffffffffffffffffffffffffff8261295a565b6129a1868361295a565b95508019841693508086168417925050509392505050565b6000819050919050565b60006129de6129d96129d484612247565b6129b9565b612247565b9050919050565b6000819050919050565b6129f8836129c3565b612a0c612a04826129e5565b848454612967565b825550505050565b600090565b612a21612a14565b612a2c8184846129ef565b505050565b5b81811015612a5057612a45600082612a19565b600181019050612a32565b5050565b601f821115612a9557612a6681612935565b612a6f8461294a565b81016020851015612a7e578190505b612a92612a8a8561294a565b830182612a31565b50505b505050565b600082821c905092915050565b6000612ab860001984600802612a9a565b1980831691505092915050565b6000612ad18383612aa7565b9150826002028217905092915050565b612aea82612195565b67ffffffffffffffff811115612b0357612b0261249c565b5b612b0d82546128cd565b612b18828285612a54565b600060209050601f831160018114612b4b5760008415612b39578287015190505b612b438582612ac5565b865550612bab565b601f198416612b5986612935565b60005b82811015612b8157848901518255600182019150602085019450602081019050612b5c565b86831015612b9e5784890151612b9a601f891682612aa7565b8355505b6001600288020188555050505b505050505050565b7f4e487b7100000000000000000000000000000000000000000000000000000000600052601160045260246000fd5b6000612bed82612247565b91507fffffffffffffffffffffffffffffffffffffffffffffffffffffffffffffffff8203612c1f57612c1e612bb3565b5b600182019050919050565b7f4e487b7100000000000000000000000000000000000000000000000000000000600052603260045260246000fd5b600081905092915050565b6000612c6f82612195565b612c798185612c59565b9350612c898185602086016121b1565b80840191505092915050565b6000612ca18285612c64565b9150612cad8284612c64565b91508190509392505050565b600081519050919050565b600082825260208201905092915050565b6000612ce082612cb9565b612cea8185612cc4565b9350612cfa8185602086016121b1565b612d03816121db565b840191505092915050565b6000608082019050612d2360008301876122dc565b612d3060208301866122dc565b612d3d6040830185612468565b8181036060830152612d4f8184612cd5565b905095945050505050565b600081519050612d6981612106565b92915050565b600060208284031215612d8557612d846120d0565b5b6000612d9384828501612d5a565b91505092915050565b7f4e487b7100000000000000000000000000000000000000000000000000000000600052601260045260246000fd5b6000604082019050612de060008301856122dc565b612ded6020830184612468565b939250505056fea264697066735822122086c96f34467f8b5ff916e7368e773f82707e7afc5941ab9016f99ccba41bc47564736f6c63430008140033",
  "immutableReferences": {},
  "source": "// SPDX-License-Identifier: MIT\r\npragma solidity ^0.8.20;\r\n\r\nimport \"@openzeppelin/contracts/token/ERC721/ERC721.sol\";\r\nimport \"@openzeppelin/contracts/access/Ownable.sol\";\r\n\r\ncontract Certification is ERC721, Ownable{\r\n  \r\n  uint256 private tokenIdCounter;\r\n  event MintedCert(uint256 indexed _tokenId);\r\n\r\n  struct certificate {\r\n    string studentName;\r\n    string studentNum;\r\n    string program;\r\n    string specialization;\r\n    string gradDate;\r\n  }\r\n\r\n  certificate[] public student;\r\n\r\n  constructor(string memory name, string memory symbol, address _owner) ERC721(name, symbol) Ownable(_owner) {\r\n  }\r\n  \r\n  function verify( uint256 certTokenId ) public view returns(string memory studentName, string memory studentNum, string memory program, string memory gradDate, string memory specialization) {\r\n    certificate memory _certificate = student[certTokenId];\r\n\r\n    studentName = _certificate.studentName;\r\n    studentNum = _certificate.studentNum;\r\n    program = _certificate.program;\r\n    gradDate = _certificate.gradDate;\r\n    specialization = _certificate.specialization;\r\n\r\n    return (studentName, studentNum, program, specialization, gradDate);\r\n  }\r\n\r\n  function mint(string memory _name, string memory _studentNum, string memory _program,  string memory _specialization,  string memory _gradDate) public  payable onlyOwner {\r\n    uint256 certTokenId = tokenIdCounter;\r\n    certificate memory _certificate = certificate({ studentName: _name, studentNum: _studentNum, program: _program, specialization: _specialization,  gradDate: _gradDate});\r\n    student.push(_certificate);\r\n    _mint(msg.sender, certTokenId);\r\n    tokenIdCounter++;\r\n    emit MintedCert(certTokenId);\r\n  }\r\n}",
  "sourcePath": "E:\\Holify\\front-end\\contracts\\Certification.sol",
  "compiler": {
    "name": "solc",
    "version": "0.8.20+commit.a1b79de6.Emscripten.clang"
  },
  "schemaVersion": "3.4.16",
  "updatedAt": "2023-11-12T07:20:42.038Z",
  "networkType": "ethereum",
  "devdoc": {
    "errors": {
      "ERC721IncorrectOwner(address,uint256,address)": [
        {
          "details": "Indicates an error related to the ownership over a particular token. Used in transfers.",
          "params": {
            "owner": "Address of the current owner of a token.",
            "sender": "Address whose tokens are being transferred.",
            "tokenId": "Identifier number of a token."
          }
        }
      ],
      "ERC721InsufficientApproval(address,uint256)": [
        {
          "details": "Indicates a failure with the `operator`s approval. Used in transfers.",
          "params": {
            "operator": "Address that may be allowed to operate on tokens without being their owner.",
            "tokenId": "Identifier number of a token."
          }
        }
      ],
      "ERC721InvalidApprover(address)": [
        {
          "details": "Indicates a failure with the `approver` of a token to be approved. Used in approvals.",
          "params": {
            "approver": "Address initiating an approval operation."
          }
        }
      ],
      "ERC721InvalidOperator(address)": [
        {
          "details": "Indicates a failure with the `operator` to be approved. Used in approvals.",
          "params": {
            "operator": "Address that may be allowed to operate on tokens without being their owner."
          }
        }
      ],
      "ERC721InvalidOwner(address)": [
        {
          "details": "Indicates that an address can't be an owner. For example, `address(0)` is a forbidden owner in EIP-20. Used in balance queries.",
          "params": {
            "owner": "Address of the current owner of a token."
          }
        }
      ],
      "ERC721InvalidReceiver(address)": [
        {
          "details": "Indicates a failure with the token `receiver`. Used in transfers.",
          "params": {
            "receiver": "Address to which tokens are being transferred."
          }
        }
      ],
      "ERC721InvalidSender(address)": [
        {
          "details": "Indicates a failure with the token `sender`. Used in transfers.",
          "params": {
            "sender": "Address whose tokens are being transferred."
          }
        }
      ],
      "ERC721NonexistentToken(uint256)": [
        {
          "details": "Indicates a `tokenId` whose `owner` is the zero address.",
          "params": {
            "tokenId": "Identifier number of a token."
          }
        }
      ],
      "OwnableInvalidOwner(address)": [
        {
          "details": "The owner is not a valid owner account. (eg. `address(0)`)"
        }
      ],
      "OwnableUnauthorizedAccount(address)": [
        {
          "details": "The caller account is not authorized to perform an operation."
        }
      ]
    },
    "events": {
      "Approval(address,address,uint256)": {
        "details": "Emitted when `owner` enables `approved` to manage the `tokenId` token."
      },
      "ApprovalForAll(address,address,bool)": {
        "details": "Emitted when `owner` enables or disables (`approved`) `operator` to manage all of its assets."
      },
      "Transfer(address,address,uint256)": {
        "details": "Emitted when `tokenId` token is transferred from `from` to `to`."
      }
    },
    "kind": "dev",
    "methods": {
      "approve(address,uint256)": {
        "details": "See {IERC721-approve}."
      },
      "balanceOf(address)": {
        "details": "See {IERC721-balanceOf}."
      },
      "getApproved(uint256)": {
        "details": "See {IERC721-getApproved}."
      },
      "isApprovedForAll(address,address)": {
        "details": "See {IERC721-isApprovedForAll}."
      },
      "name()": {
        "details": "See {IERC721Metadata-name}."
      },
      "owner()": {
        "details": "Returns the address of the current owner."
      },
      "ownerOf(uint256)": {
        "details": "See {IERC721-ownerOf}."
      },
      "renounceOwnership()": {
        "details": "Leaves the contract without owner. It will not be possible to call `onlyOwner` functions. Can only be called by the current owner. NOTE: Renouncing ownership will leave the contract without an owner, thereby disabling any functionality that is only available to the owner."
      },
      "safeTransferFrom(address,address,uint256)": {
        "details": "See {IERC721-safeTransferFrom}."
      },
      "safeTransferFrom(address,address,uint256,bytes)": {
        "details": "See {IERC721-safeTransferFrom}."
      },
      "setApprovalForAll(address,bool)": {
        "details": "See {IERC721-setApprovalForAll}."
      },
      "supportsInterface(bytes4)": {
        "details": "See {IERC165-supportsInterface}."
      },
      "symbol()": {
        "details": "See {IERC721Metadata-symbol}."
      },
      "tokenURI(uint256)": {
        "details": "See {IERC721Metadata-tokenURI}."
      },
      "transferFrom(address,address,uint256)": {
        "details": "See {IERC721-transferFrom}."
      },
      "transferOwnership(address)": {
        "details": "Transfers ownership of the contract to a new account (`newOwner`). Can only be called by the current owner."
      }
    },
    "version": 1
  },
  "userdoc": {
    "kind": "user",
    "methods": {},
    "version": 1
  }
}